:100E9400436F6C746F6E7320616E64204D61747463
:100EA4000068657773204C434420576F726B73213D
:010EB400003D
:100CC100C2A5120EB5120D8EC2A4C2A77FE87E0383
:100CD100120E22D2A4D2A77FE87E03120E22C209ED
:100CE100753180120E777BFF7A0E79947F10120D89
:100CF100F8C2097531C0120E777BFF7A0E79A57F94
:100D010010120DF87FB87E0B120E22120ED180B890
:100D5600436F6465204D656D6F72793A20537472E6
:100D6600696E6720666F7220436F6C746F6E2050D9
:100D760069657263652026204D6174746865772005
:080D8600576564657765720092
:070EEC007BFF7A0D7956220D
:100DC400E4FFEF900D5693FE74012FF582E4340096
:100DD400F583EEF00F70EB9000007458F0A3746488
:100DE400F0A37461F0A37474F0A37461F07B017ACE
:030DF40000790083
:010DF70022D9
:100D11002570200025322E32625820004164647211
:100D21002E2020203020203120203220203320206E
:100D3100342020352020362020372020382020392B
:100D410020204120204220204320204420204520F3
:050D510020460A0D0020
:100BEA008B328A3389348B0B8A0C890D7BFF7A0D01
:100BFA007911120862E4F535AB32AA33A934853586
:100C0A0082758300120B75F5367BFF7A0D7915F51F
:100C1A000B1208620535E535C3941040DBE4F5355F
:100C2A00AB32AA33A934853582758300120B75F568
:100C3A0036C394204007E536D3947F400375362E99
:100C4A00AF36120E4B0535E535C3941040D27F0DF1
:080C5A00120E4B7F0A020E4B43
:0A0C62008C258D268B228A2389241D
:100C6C008B278A288929AF0153070F7E00C3E49F85
:100C7C00FFE49EFEEF2529F529EE3528F5287BFFAC
:100C8C007A0D791D120862AB27AA28A929120BEA42
:100C9C0074102529F529E43528F528E5242526F9AD
:100CAC00E5233525FA8A838982C3E5299582E528CF
:040CBC00958340D309
:010CC0002211
:100EB500759AE285878753877F759850E4F59B750A
:0C0EC5009AE2759B1ED299C2ACFEFF227F
:100E22005389F0438901C2A9E4FDFCC3ED9FEC9E06
:100E32005016758CFA758A1FC28DD28C308DFDC208
:080E42008C0DBD00010C80E3E2
:010E4A002285
:050E7200C209753138D2
:100E7700A20992B6D2B77F0A7E00120E2285318070
:0D0E8700C2B77F017E00120E227580FF228F
:100DF8008F2D8B2E8A2F8930AB2EAA2FA930120B5C
:100E08005C6016D2090530E5307002052F14F9121E
:0A0E18000B5CF531120E7780DF222B
:100D8E007F1E7E00120E22120E727F057E00120E44
:100D9E0022120E72120E72C20975310F120E77C226
:100DAE0009753101120E777F027E00120E22C209E2
:060DBE00753106020E77FC
:0F0ED100C209753101120E777F027E00020E22D8
:03000000020EE00D
:0C0EE000787FE4F6D8FD758136020CC165
:100B5C00BB010689828A83E0225002E722BBFE0297
:090B6C00E32289828A83E49322CA
:100B7500BB010CE58229F582E5833AF583E0225035
:100B850006E92582F8E622BBFE06E92582F8E2227F
:0D0B9500E58229F582E5833AF583E4932299
:100E4B00EFB40A07740D120E56740A309811A89954
:100E5B00B8130CC2983098FDA899C298B811F63007
:070E6B0099FDC299F59922DF
:10080000E517240BF8E60517227808300702780B65
:10081000E475F001120BB4020B5C2000EB7F2ED2CA
:10082000008018EF540F2490D43440D4FF30040BD0
:10083000EF24BFB41A0050032461FFE518600215CD
:1008400018051BE51B7002051A30070D7808E475C2
:10085000F001120BB4EF020BA2020E4B7403D2078D
:100860008003E4C207F5178B088A09890AE4F518A2
:10087000F51AF51BE51860077F2012083B80F57517
:1008800019FFC201C200C202C203C205C206C208E9
:10089000120809FF700D3007057F0012084CAF1BCE
:1008A000AE1A22B4255FC2D5C204120809FF24D0B3
:1008B000B40A00501A75F00A781830D50508B6FF4A
:1008C0000106C6A426F620D5047002D20380D924DE
:1008D000CFB41A00EF5004C2E5D204020A4CD20190
:1008E00080C6D20080C0D20280BCD2D580BAD205E8
:1008F00080B47F2012083B2002077401B518004025
:10090000F1120800FF12083B020874D208D20680D8
:1009100095120800FB120800FA120800F94A4B7001
:1009200006791D7A0B7BFF20022EE518602A7E00D7
:100930008E82758300120B7560060EEE651970F0DD
:10094000C2D5EBC0E0EAC0E0E9C0E0EE120A93D005
:10095000E0F9D0E0FAD0E0FB120B5CFF60AAEBC03C
:10096000E0EAC0E0E9C0E012083BD0E02401F9D0A1
:10097000E03400FAD0E0FBE5190460DCD519D98039
:10098000877BFF7A0A798FD202809C791080027966
:1009900008C206C2088008D2D5790A8004790AC242
:1009A000D5E519047002F519E4FAFDFEFF120800FE
:1009B000FC7B08200113120800FD7B1030000A1296
:1009C0000800FE120800FF7B20EC3382D592D55040
:1009D00013C3E43000069FFFE49EFEE42001039D64
:1009E000FDE49CFCE4CBF8C201EC700CCFCECDCC86
:1009F000E824F8F870F38017C3EF33FFEE33FEED11
:100A000033FDEC33FCEB33FB994002FB0FD8E9EBF1
:100A1000300105F8D0E0C448B201C0E00AEC4D4E08
:100A20004F78207B0070C2EAB5190040BCC0E012CC
:100A30000A95D0F0D0E0200104C4C0E0C4B201C0E7
:100A4000F0120824D0F0D5F0EB020874120BC409A0
:100A50001153098B5808E24C08DE42098F4F099761
:0F0A60004409974908F743099D550981460981C3
:100A6F00450981470B3D5008E62D08EA2E090D2B4D
:100A7F0008EE23090B200B262A08A64800000905BB
:100A8F003F3F3F00790AA2D5200314300509B91062
:100A9F00020404B9080104A2D52006025001042063
:100AAF0002689202B518005034C0E07F203003195D
:100ABF007F30A20272067205500F120AECC202C2F8
:100ACF0006C205C2087F30800F300503E9C0E0126F
:100ADF00083B300503D0E0F9D0E0B518CC3005174E
:100AEF007F30B9100C12083B7F583004077F788095
:100AFF0003B9080312083B3002057F2D02083B7F24
:100B0F00202008F87F2B2006F322920280CF286E38
:100B1F00756C6C2900D2011208003001F8C20178FF
:100B2F001830D50108F60208A62D5043495812086F
:100B3F00002403B405004001E4900B389312082CF5
:0D0B4F00743A12082CD20375180402098BA9
:100BA200BB010689828A83F0225002F722BBFE0132
:020BB200F3222C
:100BB400FAE6FB0808E6F925F0F618E6CA3AF62242
:100BC400D083D082F8E4937012740193700DA3A3C0
:100BD40093F8740193F5828883E4737402936860D4
:060BE400EFA3A3A380DFD4
:00000001FF
