:101354005389F0438901C2A9E4FDFCC3ED9FEC9ECF
:101364005016758CFA758A1FC28DD28C308DFDC2D1
:081374008C0DBD00010C80E3AB
:01137C00224E
:10137D005389F0438901C2A9E4FDFCC3ED9FEC9EA6
:10138D005016758CFA758A1FC28DD28C308DFDC2A8
:08139D008C0DBD00010C80E382
:0113A5002225
:05141B00C209750E3846
:10142000A20992B6D2B77F0A7E00121354850E80AD
:0D143000C2B77F017E001213547580FF22A9
:0811A4008F098B0A8A0B890CEC
:1011AC00E509701FF50DAB0AAA0BA90C850D82750C
:1011BC008300120B75FF602FD209F50E1214200557
:1011CC000D80E3E4F50DE50DC39509501AD209AB7A
:1011DC000AAA0BA90C850D82758300120B75F50EEE
:0711EC00121420050D80DF45
:0111F30022D9
:1012EA007F1E7E0012135412141B7F057E001213F8
:1012FA005412141B12141BC209750E0F121420C2A9
:10130A0009750E011214207F027E00121354C209BD
:06131A00750E060214200E
:0F147A00C209750E011214207F027E0002135466
:10143D00436F6C746F6E7320616E64204D617474B4
:10144D000068657773204C434420576F726B73218E
:01145D00008E
:1010E200C2A612145E1212EA7F807E1A7D067C006E
:1010F20012107B12100D8F08C2A4C2A7E50860046B
:10110200C2A78002D2A77FE87E03121354D2A4D2D0
:10111200A7C209750E801214207BFF7A14793D7FD5
:10112200101211A4C209750EC01214207BFF7A148A
:10113200794E7F0F1211A47FB87E0B121354121432
:031142007A80B5FB
:10127A00436F6465204D656D6F72793A20537472BD
:10128A00696E6720666F7220436F6C746F6E2050B0
:10129A0069657263652026204D61747468657720DC
:0812AA00576564657765720069
:071495007BFF7A12797A2235
:10132000E4FFEF90127A93FE74012FF582E434000B
:10133000F583EEF00F70EB9000007458F0A3746426
:10134000F0A37461F0A37474F0A37461F07B017A6C
:0313500000790021
:011353002277
:1011F4002570200025322E3262582000416464722A
:101204002E20202030202031202032202033202086
:101214003420203520203620203720203820203943
:10122400202041202042202043202044202045200B
:0512340020460A0D0038
:100F21008B528A5389548B258A2689277BFF7A1114
:100F310079F4120862E4F555AB52AA53A9548555C8
:100F410082758300120B75F5567BFF7A1179F8F5DE
:100F5100251208620555E555C3941040DBE4F555AB
:100F6100AB52AA53A954855582758300120B75F5AE
:100F710056C394204007E556D3947F400375562EFF
:100F8100AF561213CF0555E555C3941040D27F0DCE
:080F91001213CF7F0A0213CFF7
:0A1145008C468D478B438A44894590
:10114F008B488A49894AAF0153070F7E00C3E49F3A
:10115F00FFE49EFEEF254AF54AEE3549F5497BFF40
:10116F007A127900120862AB48AA49A94A120F21D4
:10117F007410254AF54AE43549F549E5452547F9FF
:10118F00E5443546FA8A838982C3E54A9582E54963
:04119F00958340D321
:0111A3002229
:10145E00759AE285878753877F759850E4F59B755B
:0C146E009AE2759B1ED299C2ACFEFF22D0
:10107B00E4F509AB07AA06A905A804FF7EA07D8CA1
:10108B00FC120C12EFD39402500575C3708045EF20
:10109B00D39404500575C371803AEFD3940850056F
:1010AB0075C372802FEFD39410500575C3738024D2
:1010BB00EFD39420500575C3F08019EFD3944050B3
:1010CB000575C3F1800EEFD39480500575C3F28084
:0610DB0003750904AF09D2
:0110E10022EC
:0813A6007B007A00791B7FFF38
:1013AE00E4FE8FC5AFC40EEF20E703EE70F6EE60DD
:1013BE000BE5C5120BA2EF5470FE80027E01AF0644
:0113CE0022FC
:020E98008F17B2
:100E9A00E517C39440507BE5174440FCFF7B007A7A
:100EAA0000791C1213AEAD07751D18ED70047F0191
:100EBA0080027F00E51DC3941950047E0180027EE2
:100ECA0000EE5F6024AF1BAE1AAD19AC18A91DA8BD
:100EDA0001120CA4AC077B007A00791C1213AEAD88
:100EEA000774F8251DF51D80C2E51770047C9580EE
:100EFA000BE517B408047C8780027C01ED700CAF07
:100F0A0004FB7A00791C1213AEAD07ED70067D0260
:060F1A0080027D03AF051B
:010F200022AE
:080F99008F178B188A19891AC1
:100FA100E4FDFC1213A6AC070DED6008EC7005E53D
:100FB1001BF460EFAB18AA19A91AE51B120BA2EDDD
:100FC10070047C01803AEC60047C028033E51B6490
:100FD100016008E51B60047C028025E517D39401BC
:100FE100401E7D01EDC3951750161213A6AB18AA2A
:100FF10019A91A8D82758300E51B120BB40D80E4CB
:0B100100EC7006FB1213A8AC07AF0454
:01100C0022C1
:0A0E0C008E4B8F4C8B4D8A4E894FA0
:100E1600E4FDF5507B007A0079517FFF1213AE8F07
:100E2600500DED6009E5507005E551F460E6AB4DF7
:100E3600AA4EA94FE551120BA2ED7005755001801F
:100E46004EE5506002800AE55164016009E5516093
:100E5600057550028039D3E54C9401E54B9400406A
:100E66002E7D017C00C3ED954CEC954B50217B000B
:100E76007A0079517FFF1213AEAB4DAA4EA94F8D62
:100E8600828C83E551120BB40DBD00010C80D6AFE8
:010E9600500B
:010E97002238
:10100D00D294E4F50E7B007A0079097FFF1213AEBE
:10101D00050EE50EC3940A40EC7B007A00790912A7
:10102D0012B2EF7008FB7A007909121239EF700FC6
:10103D00FB7A0079091213F6E509B401027F05EF79
:10104D007008FB7A007909120D7FEF7019FB7A0099
:10105D0079091213F6E50A54C0700BE50A30E7045E
:0D106D007F0780027F05EF6002C2A7D294CA
:01107A002253
:0612B2008B0F8A10891168
:1012B800C294E4F51BF51AF519F518FF120E98EF0C
:1012C800700BAB0FAA10A9117F01120F99EF700FC5
:1012D800AB0FAA10A911120B5C640160027F05D242
:0112E8009471
:0112E90022E2
:061239008B0F8A108911E1
:10123F00C294E4751BAA751A01F519F5187F0812E7
:10124F000E98EF700BAB0FAA10A9117F05120F9913
:10125F00AB0FAA10A911120B5CFEB405047F058019
:0A126F0007EE640160027F06D294CE
:011279002252
:0613F6008B0F8A10891123
:1013FC00C294E4F51BF51AF519F5187F3A120E98FC
:0E140C00EF700BAB0FAA10A9117F05120F99FC
:01141A0022AF
:060D7F008B0F8A108911A0
:100D8500E4F516F515F514751340C294F512051220
:100D9500E4F51BF51AF519F5187F37120E98EF7063
:100DA5000BAB0FAA10A9117F01120F99AB0FAA1057
:100DB500A911120B5CFE6006640160027F02EF70F0
:100DC5001185161B85151A8514198513187F291287
:100DD5000E98EF700BAB0FAA10A9117F01120F9996
:100DE500AB0FAA10A911120B5CFE6006640160022C
:100DF5007F020512EE6007E5126003EF6090E512D1
:060E050070027F01D2948F
:010E0B0022C4
:0E0CED008F398E388D378C368B3A8A3B893C96
:100CFB00C294E4F53D8F1B8E1A8D198C187F11123F
:100D0B000E98053DEF700AFB7A00793E7F01120FBA
:100D1B0099743E44006004E53D70E7E53D70027F49
:100D2B0001E4F53D053DEF700BFB7A00793E7F0149
:100D3B00FE120E0CE53E64FE600DE53E54F06007BE
:100D4B00E53D6003EF60DDE53D70027F01E53E545C
:100D5B00F070027F08EF700CAB3AAA3BA93CFF7E08
:100D6B0002120E0CEF700AFB7A00793E7F02120F13
:030D7B0099D29476
:010D7E002252
:030000000214895E
:0C148900787FE4F6D8FD7581560210E271
:100B5C00BB010689828A83E0225002E722BBFE0297
:090B6C00E32289828A83E49322CA
:100B7500BB010CE58229F582E5833AF583E0225035
:100B850006E92582F8E622BBFE06E92582F8E2227F
:0D0B9500E58229F582E5833AF583E4932299
:100BA200BB010689828A83F0225002F722BBFE0132
:020BB200F3222C
:100BB400F8BB010DE58229F582E5833AF583E8F077
:100BC400225006E92582C8F622BBFE05E92582C823
:020BD400F2220B
:100BD60075F008758200EF2FFFEE33FECD33CDCCD6
:100BE60033CCC58233C5829BED9AEC99E582984059
:100BF6000CF582EE9BFEED9AFDEC99FC0FD5F0D636
:100C0600E4CEFBE4CDFAE4CCF9A88222B800C1B95F
:100C16000059BA002DEC8BF084CFCECDFCE5F0CB9D
:100C2600F97818EF2FFFEE33FEED33FDEC33FCEBD6
:100C360033FB10D703994004EB99FB0FD8E5E4F991
:100C4600FA227818EF2FFFEE33FEED33FDEC33FC7E
:100C5600C933C910D7059BE99A4007EC9BFCE99A72
:100C6600F90FD8E0E4C9FAE4CCFB2275F010EF2FB7
:100C7600FFEE33FEED33FDCC33CCC833C810D707B7
:100C86009BEC9AE899400AED9BFDEC9AFCE899F8F2
:0E0C96000FD5F0DAE4CDFBE4CCFAE4C8F92285
:100CA400E8600FECC313FCED13FDEE13FEEF13FF2E
:030CB400D8F12252
:1013CF00EFB40A07740D1213DA740A309811A89942
:1013DF00B8130CC2983098FDA899C298B811F6307E
:0713EF0099FDC299F5992256
:10080000E5312425F8E605312278223007027825E3
:10081000E475F001120CB7020B5C2000EB7F2ED2C6
:10082000008018EF540F2490D43440D4FF30040BD0
:10083000EF24BFB41A0050032461FFE532600215B3
:10084000320535E5357002053430070D7822E47540
:10085000F001120CB7EF020BA20213CF7403D20700
:100860008003E4C207F5318B228A238924E4F53220
:10087000F534F535E53260077F2012083B80F575C9
:1008800033FFC201C200C202C203C205C206C208CF
:10089000120809FF700D3007057F0012084CAF35B4
:1008A000AE3422B4255FC2D5C204120809FF24D099
:1008B000B40A00501A75F00A783230D50508B6FF30
:1008C0000106C6A426F620D5047002D20380D924DE
:1008D000CFB41A00EF5004C2E5D204020A4CD20190
:1008E00080C6D20080C0D20280BCD2D580BAD205E8
:1008F00080B47F2012083B2002077401B53200400B
:10090000F1120800FF12083B020874D208D20680D8
:1009100095120800FB120800FA120800F94A4B7001
:1009200006791D7A0B7BFF20022EE532602A7E00BD
:100930008E82758300120B7560060EEE653370F0C3
:10094000C2D5EBC0E0EAC0E0E9C0E0EE120A93D005
:10095000E0F9D0E0FAD0E0FB120B5CFF60AAEBC03C
:10096000E0EAC0E0E9C0E012083BD0E02401F9D0A1
:10097000E03400FAD0E0FBE5330460DCD533D98005
:10098000877BFF7A0A798FD202809C791080027966
:1009900008C206C2088008D2D5790A8004790AC242
:1009A000D5E533047002F533E4FAFDFEFF120800CA
:1009B000FC7B08200113120800FD7B1030000A1296
:1009C0000800FE120800FF7B20EC3382D592D55040
:1009D00013C3E43000069FFFE49EFEE42001039D64
:1009E000FDE49CFCE4CBF8C201EC700CCFCECDCC86
:1009F000E824F8F870F38017C3EF33FFEE33FEED11
:100A000033FDEC33FCEB33FB994002FB0FD8E9EBF1
:100A1000300105F8D0E0C448B201C0E00AEC4D4E08
:100A20004F78207B0070C2EAB5330040BCC0E012B2
:100A30000A95D0F0D0E0200104C4C0E0C4B201C0E7
:100A4000F0120824D0F0D5F0EB020874120CC7099C
:100A50001153098B5808E24C08DE42098F4F099761
:0F0A60004409974908F743099D550981460981C3
:100A6F00450981470B3D5008E62D08EA2E090D2B4D
:100A7F0008EE23090B200B262A08A64800000905BB
:100A8F003F3F3F00790AA2D5200314300509B91062
:100A9F00020404B9080104A2D52006025001042063
:100AAF0002689202B532005034C0E07F2030031943
:100ABF007F30A20272067205500F120AECC202C2F8
:100ACF0006C205C2087F30800F300503E9C0E0126F
:100ADF00083B300503D0E0F9D0E0B532CC30051734
:100AEF007F30B9100C12083B7F583004077F788095
:100AFF0003B9080312083B3002057F2D02083B7F24
:100B0F00202008F87F2B2006F322920280CF286E38
:100B1F00756C6C2900D2011208003001F8C20178FF
:100B2F003230D50108F60208A62D50434958120855
:100B3F00002403B405004001E4900B389312082CF5
:0D0B4F00743A12082CD20375320402098B8F
:100CB700FAE6FB0808E6F925F0F618E6CA3AF6223E
:100CC700D083D082F8E4937012740193700DA3A3BC
:100CD70093F8740193F5828883E4737402936860D0
:060CE700EFA3A3A380DFD0
:00000001FF
