:101150005389F0438901C2A9E4FDFCC3ED9FEC9ED5
:101160005016758CFA758A1FC28DD28C308DFDC2D7
:081170008C0DBD00010C80E3B1
:011178002254
:101179005389F0438901C2A9E4FDFCC3ED9FEC9EAC
:101189005016758CFA758A1FC28DD28C308DFDC2AE
:081199008C0DBD00010C80E388
:0111A100222B
:0511C900C20975413868
:1011CE00A20992B6D2B77F0A7E00121150854180D5
:0D11DE00C2B77F017E001211507580FF2204
:080FA4008F3C8B3D8A3E893F22
:100FAC00E53C701FF540AB3DAA3EA93F85408275DC
:100FBC008300120B5CFF602FD209F5411211CE0594
:100FCC004080E3E4F540E540C3953C501AD209ABB0
:100FDC003DAA3EA93F854082758300120B5CF5410A
:070FEC001211CE054080DF69
:010FF30022DB
:1010BA007F1E7E001211501211C97F057E00121187
:1010CA00501211C91211C9C20975410F1211CEC2AB
:1010DA00097541011211CE7F027E00121150C20918
:0610EA007541060211CE63
:0F122800C2097541011211CE7F027E00021150E2
:1011EB00436F6C746F6E7320616E64204D61747409
:1011FB000068657773204C434420576F726B7321E3
:01120B0000E2
:100FF400C2A612120C1210BAC2A4C2A77FE87E03C2
:10100400121150D2A4D2A7C2097541801211CE7B0D
:10101400FF7A1179EB7F10120FA4C2097541C01237
:1010240011CE7BFF7A1179FC7F0F120FA47FB87E5B
:091034000B12115012122880BFAA
:10108200436F6465204D656D6F72793A20537472B7
:10109200696E6720666F7220436F6C746F6E2050AA
:1010A20069657263652026204D61747468657720D6
:0810B200576564657765720063
:071243007BFF7A1079822283
:1010F000E4FFEF90108293FE74012FF582E4340038
:10110000F583EEF00F70EB9000007458F0A3746458
:10111000F0A37461F0A37474F0A37461F07B017A9E
:0311200000790053
:0111230022A9
:10103D002570200025322E326258200041646472E2
:10104D002E2020203020203120203220203320203F
:10105D0034202035202036202037202038202039FC
:10106D0020204120204220204320204420204520C4
:05107D0020460A0D00F1
:100DF2008B428A4389448B0B8A0C890D7BFF7A10C4
:100E0200793D120862E4F545AB42AA43A9448545FF
:100E120082758300120B5CF5467BFF7A107941F5EF
:100E22000B1208620545E545C3941040DBE4F54525
:100E3200AB42AA43A944854582758300120B5CF537
:100E420046C394204007E546D3947F400375462E5F
:100E5200AF461211A20545E545C3941040D27F0D5D
:080E62001211A27F0A0211A285
:0A0F45008C308D318B2D8A2E892F00
:100F4F008B328A338934AF0153070F7E00C3E49F7E
:100F5F00FFE49EFEEF2534F534EE3533F5337BFF9A
:100F6F007A107949120862AB32AA33A934120DF202
:100F7F0074102534F534E43533F533E52F2531F985
:100F8F00E52E3530FA8A838982C3E5349582E533BD
:040F9F00958340D323
:010FA300222B
:10120C00759AE285878753877F759850E4F59B75AF
:0C121C009AE2759B1ED299C2ACFEFF2224
:100EDE00E4F51CAB07AA06A905A804FF7EA07D8C2D
:100EEE00FC120BF9EFD39402500575C3708045EFD9
:100EFE00D39404500575C371803AEFD3940850050E
:100F0E0075C372802FEFD39410500575C373802470
:100F1E00EFD39420500575C3F08019EFD394405051
:100F2E000575C3F1800EEFD39480500575C3F28022
:060F3E0003751C04AF1C4A
:010F4400228A
:081124007B007A00794B7FFF8C
:10112C00E4FE8FC5AFC40EEF54F064F06003EE70B4
:10113C00F3EE600BE5C5120B89EF5470FE80027E56
:03114C0001AF06EA
:01114F00227D
:020CED008F3541
:100CEF00E535C39440507BE5354440FCFF7B007AEB
:100CFF0000793A12112CAD07753B18ED70047F0186
:100D0F0080027F00E53BC3941950047E0180027E70
:100D1F0000EE5F6024AF39AE38AD37AC36A93BA8D3
:100D2F0001120C8BAC077B007A00793A12112CADB3
:100D3F000774F8253BF53B80C2E53570047C958040
:100D4F000BE535B408047C8780027C01ED700CAF95
:100D5F0004FB7A00793A12112CAD07ED70067D0273
:060D6F0080027D03AF05C8
:010D7500225B
:080E6A008F478B488A49894A31
:100E7200E4FDFC121124AC070DED6008EC7005E5F1
:100E82004BF460EFAB48AA49A94AE54B120B89ED36
:100E920070047C01803AEC60047C028033E54B6490
:100EA200016008E54B60047C028025E547D394018C
:100EB200401E7D01EDC395475016121124AB48AA7E
:100EC20049A94A8D82758300E54B120B9B0D80E484
:0B0ED200EC7006FB121126AC07AF0409
:010EDD0022F2
:100D7600E4F52CF52BF52A752940D294F5287B004D
:100D86007A0079227FFF12112C0528E528C3940AE0
:100D960040ECC294E4F539F538F537F5367F401264
:100DA6000CEDEF700AFB7A0079227F01120E6AEFD2
:100DB600700A74226401440060027F05EF6002C27B
:100DC600A7D294EF7011C2947539AA753801F53718
:100DD600F5367F48120CEDEF700AFB7A0079227F18
:0B0DE60005120E6AEF6002C2A7D29453
:010DF10022DF
:03000000021237B2
:0C123700787FE4F6D8FD75814B020FF4BF
:100B5C00BB010CE58229F582E5833AF583E022504E
:100B6C0006E92582F8E622BBFE06E92582F8E22298
:0D0B7C00E58229F582E5833AF583E49322B2
:100B8900BB010689828A83F0225002F722BBFE014B
:020B9900F32245
:100B9B00F8BB010DE58229F582E5833AF583E8F090
:100BAB00225006E92582C8F622BBFE05E92582C83C
:020BBB00F22224
:100BBD0075F008758200EF2FFFEE33FECD33CDCCEF
:100BCD0033CCC58233C5829BED9AEC99E582984072
:100BDD000CF582EE9BFEED9AFDEC99FC0FD5F0D64F
:100BED00E4CEFBE4CDFAE4CCF9A88222B800C1B979
:100BFD000059BA002DEC8BF084CFCECDFCE5F0CBB7
:100C0D00F97818EF2FFFEE33FEED33FDEC33FCEBEF
:100C1D0033FB10D703994004EB99FB0FD8E5E4F9AA
:100C2D00FA227818EF2FFFEE33FEED33FDEC33FC97
:100C3D00C933C910D7059BE99A4007EC9BFCE99A8B
:100C4D00F90FD8E0E4C9FAE4CCFB2275F010EF2FD0
:100C5D00FFEE33FEED33FDCC33CCC833C810D707D0
:100C6D009BEC9AE899400AED9BFDEC9AFCE899F80B
:0E0C7D000FD5F0DAE4CDFBE4CCFAE4C8F9229E
:100C8B00E8600FECC313FCED13FDEE13FEEF13FF47
:030C9B00D8F1226B
:1011A200EFB40A07740D1211AD740A309811A899A0
:1011B200B8130CC2983098FDA899C298B811F630AD
:0711C20099FDC299F5992285
:10080000E517240BF8E60517227808300702780B65
:10081000E475F001120CB7020C9E2000EB7F2ED283
:10082000008018EF540F2490D43440D4FF30040BD0
:10083000EF24BFB41A0050032461FFE518600215CD
:1008400018051BE51B7002051A30070D7808E475C2
:10085000F001120CB7EF020B890211A27403D20748
:100860008003E4C207F5178B088A09890AE4F518A2
:10087000F51AF51BE51860077F2012083B80F57517
:1008800019FFC201C200C202C203C205C206C208E9
:10089000120809FF700D3007057F0012084CAF1BCE
:1008A000AE1A22B4255FC2D5C204120809FF24D0B3
:1008B000B40A00501A75F00A781830D50508B6FF4A
:1008C0000106C6A426F620D5047002D20380D924DE
:1008D000CFB41A00EF5004C2E5D204020A4CD20190
:1008E00080C6D20080C0D20280BCD2D580BAD205E8
:1008F00080B47F2012083B2002077401B518004025
:10090000F1120800FF12083B020874D208D20680D8
:1009100095120800FB120800FA120800F94A4B7001
:1009200006791D7A0B7BFF20022EE518602A7E00D7
:100930008E82758300120B5C60060EEE651970F0F6
:10094000C2D5EBC0E0EAC0E0E9C0E0EE120A93D005
:10095000E0F9D0E0FAD0E0FB120C9EFF60AAEBC0F9
:10096000E0EAC0E0E9C0E012083BD0E02401F9D0A1
:10097000E03400FAD0E0FBE5190460DCD519D98039
:10098000877BFF7A0A798FD202809C791080027966
:1009900008C206C2088008D2D5790A8004790AC242
:1009A000D5E519047002F519E4FAFDFEFF120800FE
:1009B000FC7B08200113120800FD7B1030000A1296
:1009C0000800FE120800FF7B20EC3382D592D55040
:1009D00013C3E43000069FFFE49EFEE42001039D64
:1009E000FDE49CFCE4CBF8C201EC700CCFCECDCC86
:1009F000E824F8F870F38017C3EF33FFEE33FEED11
:100A000033FDEC33FCEB33FB994002FB0FD8E9EBF1
:100A1000300105F8D0E0C448B201C0E00AEC4D4E08
:100A20004F78207B0070C2EAB5190040BCC0E012CC
:100A30000A95D0F0D0E0200104C4C0E0C4B201C0E7
:100A4000F0120824D0F0D5F0EB020874120CC7099C
:100A50001153098B5808E24C08DE42098F4F099761
:0F0A60004409974908F743099D550981460981C3
:100A6F00450981470B3D5008E62D08EA2E090D2B4D
:100A7F0008EE23090B200B262A08A64800000905BB
:100A8F003F3F3F00790AA2D5200314300509B91062
:100A9F00020404B9080104A2D52006025001042063
:100AAF0002689202B518005034C0E07F203003195D
:100ABF007F30A20272067205500F120AECC202C2F8
:100ACF0006C205C2087F30800F300503E9C0E0126F
:100ADF00083B300503D0E0F9D0E0B518CC3005174E
:100AEF007F30B9100C12083B7F583004077F788095
:100AFF0003B9080312083B3002057F2D02083B7F24
:100B0F00202008F87F2B2006F322920280CF286E38
:100B1F00756C6C2900D2011208003001F8C20178FF
:100B2F001830D50108F60208A62D5043495812086F
:100B3F00002403B405004001E4900B389312082CF5
:0D0B4F00743A12082CD20375180402098BA9
:100C9E00BB010689828A83E0225002E722BBFE0254
:090CAE00E32289828A83E4932287
:100CB700FAE6FB0808E6F925F0F618E6CA3AF6223E
:100CC700D083D082F8E4937012740193700DA3A3BC
:100CD70093F8740193F5828883E4737402936860D0
:060CE700EFA3A3A380DFD0
:00000001FF
