:100F96005389F0438901C2A9E4FDFCC3ED9FEC9E91
:100FA6005016758CFA758A1FC28DD28C308DFDC293
:080FB6008C0DBD00010C80E36D
:010FBE002210
:100FBF005389F0438901C2A9E4FDFCC3ED9FEC9E68
:100FCF005016758CFA758A1FC28DD28C308DFDC26A
:080FDF008C0DBD00010C80E344
:010FE70022E7
:05100F00C2097536382E
:10101400A20992B6D2B77F0A7E00120F9685368057
:0D102400C2B77F017E00120F967580FF227B
:080DEA008F318B328A3389340A
:100DF200E531701FF535AB32AA33A93485358275DA
:100E02008300120B5CFF602FD209F5361210140515
:100E12003580E3E4F535E535C39531501AD209AB97
:100E220032AA33A934853582758300120B5CF536FC
:070E3200121014053580DFEA
:010E39002296
:100F00007F1E7E00120F9612100F7F057E00120FBB
:100F10009612100F12100FC20975360F121014C25C
:100F2000097536011210147F027E00120F96C20955
:060F3000753606021014E4
:0F106E00C2097536011210147F027E00020F9620
:10103100436F6C746F6E7320616E64204D617474C4
:101041000068657773204C434420576F726B73219E
:01105100009E
:100E3A00C2A6121052120F00C2A4C2A77FE87E03F4
:100E4A00120F96D2A4D2A7C2097536801210147B4B
:100E5A00FF7A1079317F10120DEAC2097536C01275
:100E6A0010147BFF7A1079427F0F120DEA7FB87E49
:090E7A000B120F9612106E80BFDE
:100EC800436F6465204D656D6F72793A2053747273
:100ED800696E6720666F7220436F6C746F6E205066
:100EE80069657263652026204D6174746865772092
:080EF80057656465776572001F
:071089007BFF7A0E79C822FB
:100F3600E4FFEF900EC893FE74012FF582E43400AF
:100F4600F583EEF00F70EB9000007458F0A3746414
:100F5600F0A37461F0A37474F0A37461F07B017A5A
:030F66000079000F
:010F69002265
:100E83002570200025322E3262582000416464729E
:100E93002E202020302020312020322020332020FB
:100EA30034202035202036202037202038202039B8
:100EB3002020412020422020432020442020452080
:050EC30020460A0D00AD
:100CA8008B378A3889398B0B8A0C890D7BFF7A0E32
:100CB8007983120862E4F53AAB37AA38A939853A3C
:100CC80082758300120B5CF53B7BFF7A0E7987F502
:100CD8000B120862053AE53AC3941040DBE4F53A92
:100CE800AB37AA38A939853A82758300120B5CF5AF
:100CF8003BC394204007E53BD3947F4003753B2ECC
:100D0800AF3B120FE8053AE53AC3941040D27F0D85
:080D1800120FE87F0A020FE848
:0A0D8B008C258D268B228A238924F3
:100D95008B278A288929AF0153070F7E00C3E49F5B
:100DA500FFE49EFEEF2529F529EE3528F5287BFF82
:100DB5007A0E798F120862AB27AA28A929120CA8E6
:100DC50074102529F529E43528F528E5242526F983
:100DD500E5233525FA8A838982C3E5299582E528A5
:040DE500958340D3DF
:010DE90022E7
:10105200759AE285878753877F759850E4F59B756B
:0C1062009AE2759B1ED299C2ACFEFF22E0
:080F6A007B007A0079407FFF53
:100F7200E4FE8FC5AFC40EEF54F064F06003EE7070
:100F8200F3EE600BE5C5120B89EF5470FE80027E12
:030F920001AF06A6
:010F95002239
:020C1F008F2A1A
:100C2100E52AC39440507BE52A4440FCFF7B007ACF
:100C310000792F120F72AD07753018ED70047F0126
:100C410080027F00E530C3941950047E0180027E4A
:100C510000EE5F6024AF2EAE2DAD2CAC2BA930A8D9
:100C610001120BBDAC077B007A00792F120F72AD18
:100C71000774F82530F53080C2E52A70047C958030
:100C81000BE52AB408047C8780027C01ED700CAF6F
:100C910004FB7A00792F120F72AD07ED70067D0209
:060CA10080027D03AF0597
:010CA700222A
:080D20008F3C8B3D8A3E893FA8
:100D2800E4FDFC120F6AAC070DED6008EC7005E5F8
:100D380040F460EFAB3DAA3EA93FE540120B89EDB8
:100D480070047C018037EC60047C028030E540B49C
:100D5800010260047C028025E53CD39401401E7D9D
:100D680001EDC3953C5016120F6AAB3DAA3EA93F50
:100D78008D82758300E540120B9B0D80E4120F6A8B
:020D8800AF04B6
:010D8A002246
:0300000002107D6E
:0C107D00787FE4F6D8FD758140020E3A41
:100B5C00BB010CE58229F582E5833AF583E022504E
:100B6C0006E92582F8E622BBFE06E92582F8E22298
:0D0B7C00E58229F582E5833AF583E49322B2
:100B8900BB010689828A83F0225002F722BBFE014B
:020B9900F32245
:100B9B00F8BB010DE58229F582E5833AF583E8F090
:100BAB00225006E92582C8F622BBFE05E92582C83C
:020BBB00F22224
:100BBD00E8600FECC313FCED13FDEE13FEEF13FF16
:030BCD00D8F1223A
:100FE800EFB40A07740D120FF3740A309811A89918
:100FF800B8130CC2983098FDA899C298B811F63069
:0710080099FDC299F5992240
:10080000E517240BF8E60517227808300702780B65
:10081000E475F001120BE9020BD02000EB7F2ED221
:10082000008018EF540F2490D43440D4FF30040BD0
:10083000EF24BFB41A0050032461FFE518600215CD
:1008400018051BE51B7002051A30070D7808E475C2
:10085000F001120BE9EF020B89020FE87403D207D3
:100860008003E4C207F5178B088A09890AE4F518A2
:10087000F51AF51BE51860077F2012083B80F57517
:1008800019FFC201C200C202C203C205C206C208E9
:10089000120809FF700D3007057F0012084CAF1BCE
:1008A000AE1A22B4255FC2D5C204120809FF24D0B3
:1008B000B40A00501A75F00A781830D50508B6FF4A
:1008C0000106C6A426F620D5047002D20380D924DE
:1008D000CFB41A00EF5004C2E5D204020A4CD20190
:1008E00080C6D20080C0D20280BCD2D580BAD205E8
:1008F00080B47F2012083B2002077401B518004025
:10090000F1120800FF12083B020874D208D20680D8
:1009100095120800FB120800FA120800F94A4B7001
:1009200006791D7A0B7BFF20022EE518602A7E00D7
:100930008E82758300120B5C60060EEE651970F0F6
:10094000C2D5EBC0E0EAC0E0E9C0E0EE120A93D005
:10095000E0F9D0E0FAD0E0FB120BD0FF60AAEBC0C8
:10096000E0EAC0E0E9C0E012083BD0E02401F9D0A1
:10097000E03400FAD0E0FBE5190460DCD519D98039
:10098000877BFF7A0A798FD202809C791080027966
:1009900008C206C2088008D2D5790A8004790AC242
:1009A000D5E519047002F519E4FAFDFEFF120800FE
:1009B000FC7B08200113120800FD7B1030000A1296
:1009C0000800FE120800FF7B20EC3382D592D55040
:1009D00013C3E43000069FFFE49EFEE42001039D64
:1009E000FDE49CFCE4CBF8C201EC700CCFCECDCC86
:1009F000E824F8F870F38017C3EF33FFEE33FEED11
:100A000033FDEC33FCEB33FB994002FB0FD8E9EBF1
:100A1000300105F8D0E0C448B201C0E00AEC4D4E08
:100A20004F78207B0070C2EAB5190040BCC0E012CC
:100A30000A95D0F0D0E0200104C4C0E0C4B201C0E7
:100A4000F0120824D0F0D5F0EB020874120BF9096B
:100A50001153098B5808E24C08DE42098F4F099761
:0F0A60004409974908F743099D550981460981C3
:100A6F00450981470B3D5008E62D08EA2E090D2B4D
:100A7F0008EE23090B200B262A08A64800000905BB
:100A8F003F3F3F00790AA2D5200314300509B91062
:100A9F00020404B9080104A2D52006025001042063
:100AAF0002689202B518005034C0E07F203003195D
:100ABF007F30A20272067205500F120AECC202C2F8
:100ACF0006C205C2087F30800F300503E9C0E0126F
:100ADF00083B300503D0E0F9D0E0B518CC3005174E
:100AEF007F30B9100C12083B7F583004077F788095
:100AFF0003B9080312083B3002057F2D02083B7F24
:100B0F00202008F87F2B2006F322920280CF286E38
:100B1F00756C6C2900D2011208003001F8C20178FF
:100B2F001830D50108F60208A62D5043495812086F
:100B3F00002403B405004001E4900B389312082CF5
:0D0B4F00743A12082CD20375180402098BA9
:100BD000BB010689828A83E0225002E722BBFE0223
:090BE000E32289828A83E4932256
:100BE900FAE6FB0808E6F925F0F618E6CA3AF6220D
:100BF900D083D082F8E4937012740193700DA3A38B
:100C090093F8740193F5828883E47374029368609E
:060C1900EFA3A3A380DF9E
:00000001FF
