:10066E005389F0438901C2A9E4FDFCC3ED9FEC9EC2
:10067E005016758CFA758A1FC28DD28C308DFDC2C4
:08068E008C0DBD00010C80E39E
:010696002241
:100697005389F0438901C2A9E4FDFCC3ED9FEC9E99
:1006A7005016758CFA758A1FC28DD28C308DFDC29B
:0806B7008C0DBD00010C80E375
:0106BF002218
:10063E00D209AB2BAA2CA92D852F8275830012030C
:03064E005FF53025
:10065100A20992B6D2B77F0A7E0012066E8530805B
:0D066100C2B77F017E0012066E7580FF2279
:08060C008F2A8B2B8A2C892D0B
:10061400E52A7014F52FE52E601F12063E052F7F84
:10062400057E0012066E80EEE4F52FE52FC3952AB1
:09063400500712063E052F80F26A
:01063D00229A
:100516007F1E7E0012066EC2097530381206517FA4
:10052600057E0012066EC209753038120651C209E0
:10053600753038120651C20975300F120651C209BC
:100546007530011206517F027E0012066EC20975D1
:05055600300602065111
:0F072400C2097530011206517F027E0002066E77
:1006E700436F6C746F6E7320616E64204D61747418
:1006F7000068657773204C434420576F726B7321F2
:0107070000F1
:1004C400C2A6120708120516C2A4C2A720A004C21D
:1004D400A58002D2A57FE87E0312066ED2A4D2A71D
:1004E400C2097530801206517BFF7A0679E77F10C6
:1004F40012060CC2097530C01206517BFF7A0679C8
:10050400F87F0F12060C7FB87E0B12066E120724BA
:0205140080B6AF
:1005A000436F6465204D656D6F72793A20537472A4
:1005B000696E6720666F7220436F6C746F6E205097
:1005C00069657263652026204D61747468657720C3
:0805D000576564657765720050
:07073F007BFF7A0579A0227F
:1005D800E4FFEF9005A093FE74012FF582E4340048
:1005E800F583EEF00F70EB9000007458F0A374647C
:1005F800F0A37461F0A37474F0A37461F07B017AC2
:0306080000790076
:01060B0022CC
:10055B002570200025322E326258200041646472CF
:10056B002E2020203020203120203220203320202C
:10057B0034202035202036202037202038202039E9
:10058B0020204120204220204320204420204520B1
:05059B0020460A0D00DE
:1003ED008B318A3289338B0B8A0C890D7BFF7A0511
:1003FD00795B120065E4F534AB31AA32A93385344B
:10040D008275830012035FF5357BFF7A05795FF501
:10041D000B1200650534E534C3941040DBE4F5346C
:10042D00AB31AA32A93385348275830012035FF58F
:10043D0035C394204007E535D3947F400375352EA1
:10044D00AF351206C00534E534C3941040D27F0D8C
:08045D001206C07F0A0206C06E
:0A0465008B228A2389248C258D2622
:10046F008B278A288929AE02AF0153070F7E00C35D
:10047F00E99FF9EA9E8B27F52889297BFF7A057971
:10048F0067120065AB27AA28A9291203ED7410255E
:10049F0029F529E43528F528AB22E5242526F9E5A9
:1004AF00233525FAEB8A838982C3E5299582E528CE
:0404BF00958340D011
:0104C3002216
:10070800759AE285878753877F759850E4F59B75BE
:0C0718009AE2759B1ED299C2ACFEFF2233
:03000000020733C1
:0C073300787FE4F6D8FD7581350204C41F
:10035F00BB010CE58229F582E5833AF583E0225053
:10036F0006E92582F8E622BBFE06E92582F8E2229D
:0D037F00E58229F582E5833AF583E49322B7
:1006C000EFB40A07740D1206CB740A309811A8997A
:1006D000B8130CC2983098FDA899C298B811F6309A
:0706E00099FDC299F5992272
:10000300E517240BF8E60517227808300702780B6A
:10001300E475F0011203B702038C2000EB7F2ED2AC
:10002300008018EF540F2490D43440D4FF30040BD5
:10003300EF24BFB41A0050032461FFE518600215D2
:1000430018051BE51B7002051A30070D7808E475C7
:10005300F0011203B7EF0203A50206C07403D2072F
:100063008003E4C207F5178B088A09890AE4F518A7
:10007300F51AF51BE51860077F2012003E80F57521
:1000830019FFC201C200C202C203C205C206C208EE
:1000930012000CFF700D3007057F0012004FAF1BDD
:1000A300AE1A22B4255FC2D5C20412000CFF24D0BD
:1000B300B40A00501A75F00A781830D50508B6FF4F
:1000C3000106C6A426F620D5047002D20380D924E3
:1000D300CFB41A00EF5004C2E5D20402024FD2019A
:1000E30080C6D20080C0D20280BCD2D580BAD205ED
:1000F30080B47F2012003E2002077401B51800402F
:10010300F1120003FF12003E020077D208D20680EC
:1001130095120003FB120003FA120003F94A4B7015
:100123000679207A037BFF20022EE518602A7E00E1
:100133008E8275830012035F60060EEE651970F000
:10014300C2D5EBC0E0EAC0E0E9C0E0EE120296D00F
:10015300E0F9D0E0FAD0E0FB12038CFF60AAEBC019
:10016300E0EAC0E0E9C0E012003ED0E02401F9D0AB
:10017300E03400FAD0E0FBE5190460DCD519D9803E
:10018300877BFF7A027992D202809C791080027970
:1001930008C206C2088008D2D5790A8004790AC247
:1001A300D5E519047002F519E4FAFDFEFF12000308
:1001B300FC7B08200113120003FD7B1030000A12A0
:1001C3000003FE120003FF7B20EC3382D592D5504F
:1001D30013C3E43000069FFFE49EFEE42001039D69
:1001E300FDE49CFCE4CBF8C201EC700CCFCECDCC8B
:1001F300E824F8F870F38017C3EF33FFEE33FEED16
:1002030033FDEC33FCEB33FB994002FB0FD8E9EBF6
:10021300300105F8D0E0C448B201C0E00AEC4D4E0D
:100223004F78207B0070C2EAB5190040BCC0E012D1
:100233000298D0F0D0E0200104C4C0E0C4B201C0F1
:10024300F0120027D0F0D5F0EB0200771203C701BC
:100253001453018E5800E54C00E14201924F019A7C
:1002630044019A4900FA4301A0550184460184459B
:1002730001844703405000E92D00ED2E01102B00AF
:10028300F123010E20032E2A00A948000001083F94
:100293003F3F00790AA2D5200314300509B91002A3
:1002A3000404B9080104A2D5200602500104200267
:0502B300689202B5187D
:1002B800005034C0E07F203003197F30A20272065C
:1002C8007205500F1202EFC202C206C205C2087FB1
:1002D80030800F300503E9C0E012003E300503D03E
:1002E800E0F9D0E0B518CC3005177F30B9100C1202
:1002F800003E7F583004077F788003B90803120056
:100308003E3002057F2D02003E7F202008F87F2B1B
:100318002006F322920280CF286E756C6C29002D7E
:1003280050434958D2011200033001F8C20178182D
:1003380030D50108F60200A91200032403B4050011
:100348004001E49003279312002F743A12002FD231
:070358000375180402018E79
:10038C00BB010689828A83E0225002E722BBFE026F
:09039C00E32289828A83E49322A2
:1003A500BB010689828A83F0225002F722BBFE0137
:0203B500F32231
:1003B700FAE6FB0808E6F925F0F618E6CA3AF62247
:1003C700D083D082F8E4937012740193700DA3A3C5
:1003D70093F8740193F5828883E4737402936860D9
:0603E700EFA3A3A380DFD9
:00000001FF
