:10124B005389F0438901C2A9E4FDFCC3ED9FEC9ED9
:10125B005016758CFA758A1FC28DD28C308DFDC2DB
:08126B008C0DBD00010C80E3B5
:011273002258
:101274005389F0438901C2A9E4FDFCC3ED9FEC9EB0
:101284005016758CFA758A1FC28DD28C308DFDC2B2
:081294008C0DBD00010C80E38C
:01129C00222F
:0512E900C209750D387B
:1012EE00A20992B6D2B77F0A7E0012124B850D80EC
:0D12FE00C2B77F017E0012124B7580FF22E7
:081023008F088B098A0A890B72
:10102B00E508701FF50CAB09AA0AA90B850C827594
:10103B008300120B75FF602FD209F50D1212EE050E
:10104B000C80E3E4F50CE50CC39508501AD209AB00
:10105B0009AA0AA90B850C82758300120B75F50D75
:07106B001212EE050C80DFFC
:01107200225B
:1011B5007F1E7E0012124B1212E97F057E0012126D
:1011C5004B1212E91212E9C209750D0F1212EEC285
:1011D50009750D011212EE7F027E0012124BC20933
:0611E500750D060212EE7A
:0F134800C209750D011212EE7F027E0002124BD8
:10130B00436F6C746F6E7320616E64204D617474E7
:10131B000068657773204C434420576F726B7321C1
:01132B0000C1
:10107300C2A612132C1211B5120EEFC2A4C2A77F7F
:10108300E87E0312124BD2A4D2A7C209750D8012B7
:1010930012EE7BFF7A13790B7F10121023C20975AE
:1010A3000DC01212EE7BFF7A13791C7F0F121023EF
:0C10B3007FB87E0B12124B12134880BF56
:10114500436F6465204D656D6F72793A20537472F3
:10115500696E6720666F7220436F6C746F6E2050E6
:1011650069657263652026204D6174746865772012
:0811750057656465776572009F
:071363007BFF7A117945229E
:1011EB00E4FFEF90114593FE74012FF582E4340078
:1011FB00F583EEF00F70EB9000007458F0A374645D
:10120B00F0A37461F0A37474F0A37461F07B017AA2
:03121B0000790057
:01121E0022AD
:1010BF002570200025322E32625820004164647260
:1010CF002E202020302020312020322020332020BD
:1010DF00342020352020362020372020382020397A
:1010EF002020412020422020432020442020452042
:0510FF0020460A0D006F
:100E03008B3E8A3F89408B258A2689277BFF7A1070
:100E130079BF120862E4F541AB3EAA3FA940854180
:100E230082758300120B75F5427BFF7A1079C3F547
:100E3300251208620541E541C3941040DBE4F54106
:100E4300AB3EAA3FA940854182758300120B75F51D
:100E530042C394204007E542D3947F400375422E5A
:100E6300AF4212129D0541E541C3941040D27F0D5C
:080E730012129D7F0A02129D7C
:0A0FC4008C398D3A8B368A37893854
:100FCE008B3B8A3C893DAF0153070F7E00C3E49FE4
:100FDE00FFE49EFEEF253DF53DEE353CF53C7BFFF7
:100FEE007A1079CB120862AB3BAA3CA93D120E03D4
:100FFE007410253DF53DE4353CF53CE538253AF9D0
:10100E00E5373539FA8A838982C3E53D9582E53C19
:04101E00958340D3A3
:0110220022AB
:10132C00759AE285878753877F759850E4F59B758E
:0C133C009AE2759B1ED299C2ACFEFF2203
:100F5D00E4F51DAB07AA06A905A804FF7EA07D8CAC
:100F6D00FC120C12EFD39402500575C3708045EF3F
:100F7D00D39404500575C371803AEFD3940850058E
:100F8D0075C372802FEFD39410500575C3738024F1
:100F9D00EFD39420500575C3F08019EFD3944050D2
:100FAD000575C3F1800EEFD39480500575C3F280A3
:060FBD0003751D04AF1DC9
:010FC300220B
:08121F007B007A00791A7FFFC1
:10122700E4FE8FC5AFC40EEF54F064F06003EE70B8
:10123700F3EE600BE5C5120BA2EF5470FE80027E41
:0312470001AF06EE
:01124A002281
:020D7A008F16D2
:100D7C00E516C39440507BE5164440FCFF7B007A9B
:100D8C0000791B121227AD07751C18ED70047F013A
:100D9C0080027F00E51CC3941950047E0180027E02
:100DAC0000EE5F6024AF1AAE19AD18AC17A91CA8E1
:100DBC0001120CA4AC077B007A00791B121227AD30
:100DCC000774F8251CF51C80C2E51670047C958010
:100DDC000BE516B408047C8780027C01ED700CAF27
:100DEC0004FB7A00791B121227AD07ED70067D0209
:060DFC0080027D03AF053B
:010E020022CD
:080E7B008F168B178A188919E4
:100E8300E4FDFC12121FAC070DED6008EC7005E5E4
:100E93001AF460EFAB17AA18A919E51A120BA2ED01
:100EA30070047C01803AEC60047C028033E51A64B0
:100EB300016008E51A60047C028025E516D39401DD
:100EC300401E7D01EDC39516501612121FAB17AAD3
:100ED30018A9198D82758300E51A120BB40D80E4ED
:0B0EE300EC7006FB121221AC07AF04FC
:010EEE0022E1
:100EEF00D294E4F50D7B007A0079087FFF12122768
:100EFF00050DE50DC3940A40EC7B007A00790812CA
:100F0F00117DEF7008FB7A007908121104EF700F52
:100F1F00FB7A0079081212C4E508B401027F05EFCD
:100F2F007008FB7A007908120CEDEF7019FB7A004C
:100F3F0079081212C4E50954C0700BE50930E704B3
:0D0F4F007F0780027F05EF6002C2A7D294E9
:010F5C002272
:06117D008B0E8A0F8910A1
:10118300C294E4F51AF519F518F517FF120D7AEF65
:10119300700BAB0EAA0FA9107F01120E7BEF700F1D
:1011A300AB0EAA0FA910120B5C640160027F05D27B
:0111B30094A7
:0111B4002218
:061104008B0E8A0F89101A
:10110A00C294E4751AAA751901F518F5177F081221
:10111A000D7AEF700BAB0EAA0FA9107F05120E7B8A
:10112A00AB0EAA0FA910120B5CFEB405047F058052
:0A113A0007EE640160027F06D29404
:011144002288
:0612C4008B0E8A0F891059
:1012CA00C294E4F51AF519F518F5177F3A120D7A52
:0E12DA00EF700BAB0EAA0FA9107F05120E7B52
:0112E80022E3
:060CED008B0E8A0F891036
:100CF300E4F515F514F513751240C294F5110511B9
:100D0300E4F51AF519F518F5177F37120D7AEF7018
:100D13000BAB0EAA0FA9107F01120E7BAB0EAA0F0D
:100D2300A910120B5CFE6006640160027F02EF7083
:100D33001185151A8514198513188512177F291221
:100D43000D7AEF700BAB0EAA0FA9107F01120E7B69
:100D5300AB0EAA0FA910120B5CFE600664016002C1
:100D63007F020511EE6007E5116003EF6090E51166
:060D730070027F01D29422
:010D79002257
:0300000002135791
:0C135700787FE4F6D8FD75814202107327
:100B5C00BB010689828A83E0225002E722BBFE0297
:090B6C00E32289828A83E49322CA
:100B7500BB010CE58229F582E5833AF583E0225035
:100B850006E92582F8E622BBFE06E92582F8E2227F
:0D0B9500E58229F582E5833AF583E4932299
:100BA200BB010689828A83F0225002F722BBFE0132
:020BB200F3222C
:100BB400F8BB010DE58229F582E5833AF583E8F077
:100BC400225006E92582C8F622BBFE05E92582C823
:020BD400F2220B
:100BD60075F008758200EF2FFFEE33FECD33CDCCD6
:100BE60033CCC58233C5829BED9AEC99E582984059
:100BF6000CF582EE9BFEED9AFDEC99FC0FD5F0D636
:100C0600E4CEFBE4CDFAE4CCF9A88222B800C1B95F
:100C16000059BA002DEC8BF084CFCECDFCE5F0CB9D
:100C2600F97818EF2FFFEE33FEED33FDEC33FCEBD6
:100C360033FB10D703994004EB99FB0FD8E5E4F991
:100C4600FA227818EF2FFFEE33FEED33FDEC33FC7E
:100C5600C933C910D7059BE99A4007EC9BFCE99A72
:100C6600F90FD8E0E4C9FAE4CCFB2275F010EF2FB7
:100C7600FFEE33FEED33FDCC33CCC833C810D707B7
:100C86009BEC9AE899400AED9BFDEC9AFCE899F8F2
:0E0C96000FD5F0DAE4CDFBE4CCFAE4C8F92285
:100CA400E8600FECC313FCED13FDEE13FEEF13FF2E
:030CB400D8F12252
:10129D00EFB40A07740D1212A8740A309811A899A8
:1012AD00B8130CC2983098FDA899C298B811F630B1
:0712BD0099FDC299F5992289
:10080000E5312425F8E605312278223007027825E3
:10081000E475F001120CB7020B5C2000EB7F2ED2C6
:10082000008018EF540F2490D43440D4FF30040BD0
:10083000EF24BFB41A0050032461FFE532600215B3
:10084000320535E5357002053430070D7822E47540
:10085000F001120CB7EF020BA202129D7403D20733
:100860008003E4C207F5318B228A238924E4F53220
:10087000F534F535E53260077F2012083B80F575C9
:1008800033FFC201C200C202C203C205C206C208CF
:10089000120809FF700D3007057F0012084CAF35B4
:1008A000AE3422B4255FC2D5C204120809FF24D099
:1008B000B40A00501A75F00A783230D50508B6FF30
:1008C0000106C6A426F620D5047002D20380D924DE
:1008D000CFB41A00EF5004C2E5D204020A4CD20190
:1008E00080C6D20080C0D20280BCD2D580BAD205E8
:1008F00080B47F2012083B2002077401B53200400B
:10090000F1120800FF12083B020874D208D20680D8
:1009100095120800FB120800FA120800F94A4B7001
:1009200006791D7A0B7BFF20022EE532602A7E00BD
:100930008E82758300120B7560060EEE653370F0C3
:10094000C2D5EBC0E0EAC0E0E9C0E0EE120A93D005
:10095000E0F9D0E0FAD0E0FB120B5CFF60AAEBC03C
:10096000E0EAC0E0E9C0E012083BD0E02401F9D0A1
:10097000E03400FAD0E0FBE5330460DCD533D98005
:10098000877BFF7A0A798FD202809C791080027966
:1009900008C206C2088008D2D5790A8004790AC242
:1009A000D5E533047002F533E4FAFDFEFF120800CA
:1009B000FC7B08200113120800FD7B1030000A1296
:1009C0000800FE120800FF7B20EC3382D592D55040
:1009D00013C3E43000069FFFE49EFEE42001039D64
:1009E000FDE49CFCE4CBF8C201EC700CCFCECDCC86
:1009F000E824F8F870F38017C3EF33FFEE33FEED11
:100A000033FDEC33FCEB33FB994002FB0FD8E9EBF1
:100A1000300105F8D0E0C448B201C0E00AEC4D4E08
:100A20004F78207B0070C2EAB5330040BCC0E012B2
:100A30000A95D0F0D0E0200104C4C0E0C4B201C0E7
:100A4000F0120824D0F0D5F0EB020874120CC7099C
:100A50001153098B5808E24C08DE42098F4F099761
:0F0A60004409974908F743099D550981460981C3
:100A6F00450981470B3D5008E62D08EA2E090D2B4D
:100A7F0008EE23090B200B262A08A64800000905BB
:100A8F003F3F3F00790AA2D5200314300509B91062
:100A9F00020404B9080104A2D52006025001042063
:100AAF0002689202B532005034C0E07F2030031943
:100ABF007F30A20272067205500F120AECC202C2F8
:100ACF0006C205C2087F30800F300503E9C0E0126F
:100ADF00083B300503D0E0F9D0E0B532CC30051734
:100AEF007F30B9100C12083B7F583004077F788095
:100AFF0003B9080312083B3002057F2D02083B7F24
:100B0F00202008F87F2B2006F322920280CF286E38
:100B1F00756C6C2900D2011208003001F8C20178FF
:100B2F003230D50108F60208A62D50434958120855
:100B3F00002403B405004001E4900B389312082CF5
:0D0B4F00743A12082CD20375320402098B8F
:100CB700FAE6FB0808E6F925F0F618E6CA3AF6223E
:100CC700D083D082F8E4937012740193700DA3A3BC
:100CD70093F8740193F5828883E4737402936860D0
:060CE700EFA3A3A380DFD0
:00000001FF
