:101240005389F0438901C2A9E4FDFCC3ED9FEC9EE4
:101250005016758CFA758A1FC28DD28C308DFDC2E6
:081260008C0DBD00010C80E3C0
:011268002263
:101269005389F0438901C2A9E4FDFCC3ED9FEC9EBB
:101279005016758CFA758A1FC28DD28C308DFDC2BD
:081289008C0DBD00010C80E397
:01129100223A
:0512DE00C2097544384F
:1012E300A20992B6D2B77F0A7E00121240854480CB
:0D12F300C2B77F017E001212407580FF22FD
:08101B008F3F8B408A4189429E
:10102300E53F701FF543AB40AA41A9428543827552
:101033008300120B75FF602FD209F5441212E305EA
:101043004380E3E4F543E543C3953F501AD209AB2C
:1010530040AA41A942854382758300120B75F5446A
:071063001212E3054380DFD8
:01106A002263
:1011AA007F1E7E001212401212DE7F057E0012128E
:1011BA00401212DE1212DEC20975440F1212E3C285
:1011CA00097544011212E37F027E00121240C2091D
:0611DA007544060212E359
:0F133D00C2097544011212E37F027E00021240C2
:10130000436F6C746F6E7320616E64204D617474F2
:101310000068657773204C434420576F726B7321CC
:0113200000CC
:10106B00C2A61213211211AAC2A4C2A77FE87E0343
:10107B00121240D2A4D2A7C2097544801212E37B8C
:10108B00FF7A1379007F1012101BC2097544C0122E
:10109B0012E37BFF7A1379117F0F12101B7FB87E3F
:0910AB000B12124012133D80BF2C
:10113A00436F6465204D656D6F72793A20537472FE
:10114A00696E6720666F7220436F6C746F6E2050F1
:10115A0069657263652026204D617474686577201D
:08116A005765646577657200AA
:071358007BFF7A11793A22B4
:1011E000E4FFEF90113A93FE74012FF582E434008E
:1011F000F583EEF00F70EB9000007458F0A3746468
:10120000F0A37461F0A37474F0A37461F07B017AAD
:0312100000790062
:0112130022B8
:1010B4002570200025322E3262582000416464726B
:1010C4002E202020302020312020322020332020C8
:1010D4003420203520203620203720203820203985
:1010E400202041202042202043202044202045204D
:0510F40020460A0D007A
:100DFB008B458A4689478B0B8A0C890D7BFF7A10B2
:100E0B0079B4120862E4F548AB45AA46A947854870
:100E1B0082758300120B75F5497BFF7A1079B8F553
:100E2B000B1208620548E548C3941040DBE4F54813
:100E3B00AB45AA46A947854882758300120B75F509
:100E4B0049C394204007E549D3947F400375492E4D
:100E5B00AF491212920548E548C3941040D27F0D5A
:080E6B001212927F0A0212929A
:0A0FBC008C258D268B228A238924C0
:100FC6008B278A288929AF0153070F7E00C3E49F28
:100FD600FFE49EFEEF2529F529EE3528F5287BFF4F
:100FE6007A1079C0120862AB27AA28A929120DFB2C
:100FF60074102529F529E43528F528E5242526F950
:10100600E5233525FA8A838982C3E5299582E52871
:04101600958340D3AB
:01101A0022B3
:10132100759AE285878753877F759850E4F59B7599
:0C1331009AE2759B1ED299C2ACFEFF220E
:100F5500E4F51FAB07AA06A905A804FF7EA07D8CB2
:100F6500FC120C12EFD39402500575C3708045EF47
:100F7500D39404500575C371803AEFD39408500596
:100F850075C372802FEFD39410500575C3738024F9
:100F9500EFD39420500575C3F08019EFD3944050DA
:100FA5000575C3F1800EEFD39480500575C3F280AB
:060FB50003751F04AF1FCD
:010FBB002213
:081214007B007A00794E7FFF98
:10121C00E4FE8FC5AFC40EEF54F064F06003EE70C3
:10122C00F3EE600BE5C5120BA2EF5470FE80027E4C
:03123C0001AF06F9
:01123F00228C
:020CED008F3244
:100CEF00E532C39440507BE5324440FCFF7B007AF1
:100CFF0000793712121CAD07753818ED70047F019B
:100D0F0080027F00E538C3941950047E0180027E73
:100D1F0000EE5F6024AF36AE35AD34AC33A938A8E2
:100D2F0001120CA4AC077B007A00793712121CADAC
:100D3F000774F82538F53880C2E53270047C958049
:100D4F000BE532B408047C8780027C01ED700CAF98
:100D5F0004FB7A00793712121CAD07ED70067D0285
:060D6F0080027D03AF05C8
:010D7500225B
:080E73008F4A8B4B8A4C894D1C
:100E7B00E4FDFC121214AC070DED6008EC7005E5F7
:100E8B004EF460EFAB4BAA4CA94DE54E120BA2ED05
:100E9B0070047C01803AEC60047C028033E54E6484
:100EAB00016008E54E60047C028025E54AD394017D
:100EBB00401E7D01EDC3954A5016121214AB4BAA7E
:100ECB004CA94D8D82758300E54E120BB40D80E459
:0B0EDB00EC7006FB121216AC07AF040F
:010EE60022E9
:100EE700D294E4F53E7B007A0079397FFF12121C19
:100EF700053EE53EC3940A40EC7B007A007939123F
:100F07001172EF7008FB7A0079391210F9EF700F40
:100F1700FB7A0079391212B9E539B401027F05EF7E
:100F27007008FB7A007939120D76EF7019FB7A0099
:100F370079391212B9E53A54C0700BE53A30E70433
:0D0F47007F0780027F05EF6002C2A7D294F1
:010F5400227A
:061172008B1C8A1D891E82
:10117800C294E4F536F535F534F533FF120CEDEF8E
:10118800700BAB1CAA1DA91E7F01120E73EF700F06
:10119800AB1CAA1DA91E120B5C640160027F05D25C
:0111A80094B2
:0111A9002223
:0610F9008B4F8A50895163
:1010FF00C294E47536AA753501F534F5337F0812BD
:10110F000CEDEF700BAB4FAA50A9517F05120E7368
:10111F00AB4FAA50A951120B5CFEB405047F05809A
:0A112F0007EE640160027F06D2940F
:011139002293
:0612B9008B528A53895498
:1012BF00C294E4F536F535F534F5337F3A120CED7B
:0E12CF00EF700BAB52AA53A9547F05120E7399
:0112DD0022EE
:060D76008B2A8A2B892C58
:100D7C00E4F531F530F52F752E40C294F536F53586
:100D8C00F534F5337F37120CEDEF7021F52DAB2ACE
:100D9C00AA2BA92C7F01120E73052DEF640160079D
:100DAC00EF6004E52D70E7E52D70027F01E4F52D71
:100DBC00EF7039853136853035852F34852E337F6C
:100DCC0029120CEDEF700BAB2AAA2BA92C7F011268
:100DDC000E73052DAB2AAA2BA92C120B5C6007E510
:0E0DEC002D6003EF60CDE52D70027F01D294E3
:010DFA0022D6
:0300000002134C9C
:0C134C00787FE4F6D8FD75815402106B28
:100B5C00BB010689828A83E0225002E722BBFE0297
:090B6C00E32289828A83E49322CA
:100B7500BB010CE58229F582E5833AF583E0225035
:100B850006E92582F8E622BBFE06E92582F8E2227F
:0D0B9500E58229F582E5833AF583E4932299
:100BA200BB010689828A83F0225002F722BBFE0132
:020BB200F3222C
:100BB400F8BB010DE58229F582E5833AF583E8F077
:100BC400225006E92582C8F622BBFE05E92582C823
:020BD400F2220B
:100BD60075F008758200EF2FFFEE33FECD33CDCCD6
:100BE60033CCC58233C5829BED9AEC99E582984059
:100BF6000CF582EE9BFEED9AFDEC99FC0FD5F0D636
:100C0600E4CEFBE4CDFAE4CCF9A88222B800C1B95F
:100C16000059BA002DEC8BF084CFCECDFCE5F0CB9D
:100C2600F97818EF2FFFEE33FEED33FDEC33FCEBD6
:100C360033FB10D703994004EB99FB0FD8E5E4F991
:100C4600FA227818EF2FFFEE33FEED33FDEC33FC7E
:100C5600C933C910D7059BE99A4007EC9BFCE99A72
:100C6600F90FD8E0E4C9FAE4CCFB2275F010EF2FB7
:100C7600FFEE33FEED33FDCC33CCC833C810D707B7
:100C86009BEC9AE899400AED9BFDEC9AFCE899F8F2
:0E0C96000FD5F0DAE4CDFBE4CCFAE4C8F92285
:100CA400E8600FECC313FCED13FDEE13FEEF13FF2E
:030CB400D8F12252
:10129200EFB40A07740D12129D740A309811A899BE
:1012A200B8130CC2983098FDA899C298B811F630BC
:0712B20099FDC299F5992294
:10080000E517240BF8E60517227808300702780B65
:10081000E475F001120CB7020B5C2000EB7F2ED2C6
:10082000008018EF540F2490D43440D4FF30040BD0
:10083000EF24BFB41A0050032461FFE518600215CD
:1008400018051BE51B7002051A30070D7808E475C2
:10085000F001120CB7EF020BA20212927403D2073E
:100860008003E4C207F5178B088A09890AE4F518A2
:10087000F51AF51BE51860077F2012083B80F57517
:1008800019FFC201C200C202C203C205C206C208E9
:10089000120809FF700D3007057F0012084CAF1BCE
:1008A000AE1A22B4255FC2D5C204120809FF24D0B3
:1008B000B40A00501A75F00A781830D50508B6FF4A
:1008C0000106C6A426F620D5047002D20380D924DE
:1008D000CFB41A00EF5004C2E5D204020A4CD20190
:1008E00080C6D20080C0D20280BCD2D580BAD205E8
:1008F00080B47F2012083B2002077401B518004025
:10090000F1120800FF12083B020874D208D20680D8
:1009100095120800FB120800FA120800F94A4B7001
:1009200006791D7A0B7BFF20022EE518602A7E00D7
:100930008E82758300120B7560060EEE651970F0DD
:10094000C2D5EBC0E0EAC0E0E9C0E0EE120A93D005
:10095000E0F9D0E0FAD0E0FB120B5CFF60AAEBC03C
:10096000E0EAC0E0E9C0E012083BD0E02401F9D0A1
:10097000E03400FAD0E0FBE5190460DCD519D98039
:10098000877BFF7A0A798FD202809C791080027966
:1009900008C206C2088008D2D5790A8004790AC242
:1009A000D5E519047002F519E4FAFDFEFF120800FE
:1009B000FC7B08200113120800FD7B1030000A1296
:1009C0000800FE120800FF7B20EC3382D592D55040
:1009D00013C3E43000069FFFE49EFEE42001039D64
:1009E000FDE49CFCE4CBF8C201EC700CCFCECDCC86
:1009F000E824F8F870F38017C3EF33FFEE33FEED11
:100A000033FDEC33FCEB33FB994002FB0FD8E9EBF1
:100A1000300105F8D0E0C448B201C0E00AEC4D4E08
:100A20004F78207B0070C2EAB5190040BCC0E012CC
:100A30000A95D0F0D0E0200104C4C0E0C4B201C0E7
:100A4000F0120824D0F0D5F0EB020874120CC7099C
:100A50001153098B5808E24C08DE42098F4F099761
:0F0A60004409974908F743099D550981460981C3
:100A6F00450981470B3D5008E62D08EA2E090D2B4D
:100A7F0008EE23090B200B262A08A64800000905BB
:100A8F003F3F3F00790AA2D5200314300509B91062
:100A9F00020404B9080104A2D52006025001042063
:100AAF0002689202B518005034C0E07F203003195D
:100ABF007F30A20272067205500F120AECC202C2F8
:100ACF0006C205C2087F30800F300503E9C0E0126F
:100ADF00083B300503D0E0F9D0E0B518CC3005174E
:100AEF007F30B9100C12083B7F583004077F788095
:100AFF0003B9080312083B3002057F2D02083B7F24
:100B0F00202008F87F2B2006F322920280CF286E38
:100B1F00756C6C2900D2011208003001F8C20178FF
:100B2F001830D50108F60208A62D5043495812086F
:100B3F00002403B405004001E4900B389312082CF5
:0D0B4F00743A12082CD20375180402098BA9
:100CB700FAE6FB0808E6F925F0F618E6CA3AF6223E
:100CC700D083D082F8E4937012740193700DA3A3BC
:100CD70093F8740193F5828883E4737402936860D0
:060CE700EFA3A3A380DFD0
:00000001FF
