:101223005389F0438901C2A9E4FDFCC3ED9FEC9E01
:101233005016758CFA758A1FC28DD28C308DFDC203
:081243008C0DBD00010C80E3DD
:01124B002280
:10124C005389F0438901C2A9E4FDFCC3ED9FEC9ED8
:10125C005016758CFA758A1FC28DD28C308DFDC2DA
:08126C008C0DBD00010C80E3B4
:011274002257
:05129C00C20975423893
:1012A100A20992B6D2B77F0A7E001212238542802C
:0D12B100C2B77F017E001212237580FF225C
:081077008F3D8B3E8A3F89404A
:10107F00E53D701FF541AB3EAA3FA9408541827502
:10108F008300120B5CFF602FD209F5421212A105EB
:10109F004180E3E4F541E541C3953D501AD209ABD8
:1010AF003EAA3FA940854182758300120B5CF54231
:0710BF001212A1054180DFC0
:0110C6002207
:10118D007F1E7E0012122312129C7F057E0012120A
:10119D002312129C12129CC20975420F1212A1C287
:1011AD00097542011212A17F027E00121223C2099B
:0611BD007542060212A1BA
:0F12FB00C2097542011212A17F027E0002122366
:1012BE00436F6C746F6E7320616E64204D61747435
:1012CE000068657773204C434420576F726B73210F
:0112DE00000F
:1010C700C2A61212DF12118DC2A4C2A77FE87E0347
:1010D700121223D2A4D2A7C2097542801212A17B91
:1010E700FF7A1279BE7F10121077C2097542C012BB
:1010F70012A17BFF7A1279CF7F0F1210777FB87E0C
:091107000B1212231212FB80BF2F
:10115500436F6465204D656D6F72793A20537472E3
:10116500696E6720666F7220436F6C746F6E2050D6
:1011750069657263652026204D6174746865772002
:0811850057656465776572008F
:071316007BFF7A11795522DB
:1011C300E4FFEF90115593FE74012FF582E4340090
:1011D300F583EEF00F70EB9000007458F0A3746485
:1011E300F0A37461F0A37474F0A37461F07B017ACB
:0311F30000790080
:0111F60022D6
:101110002570200025322E3262582000416464720E
:101120002E2020203020203120203220203320206B
:101130003420203520203620203720203820203928
:1011400020204120204220204320204420204520F0
:0511500020460A0D001D
:100EC5008B438A4489458B0B8A0C890D7BFF7A11EC
:100ED5007910120862E4F546AB43AA44A945854654
:100EE50082758300120B5CF5477BFF7A117914F547
:100EF5000B1208620546E546C3941040DBE4F5464F
:100F0500AB43AA44A945854682758300120B5CF55F
:100F150047C394204007E547D3947F400375472E88
:100F2500AF471212750546E546C3941040D27F0DB2
:080F35001212757F0A02127509
:0A1018008C318D328B2E8A2F893027
:101022008B338A348935AF0153070F7E00C3E49FA7
:10103200FFE49EFEEF2535F535EE3534F5347BFFC2
:101042007A11791C120862AB33AA34A935120EC583
:1010520074102535F535E43534F534E5302532F9AB
:10106200E52F3531FA8A838982C3E5359582E534E5
:04107200958340D34F
:011076002257
:1012DF00759AE285878753877F759850E4F59B75DC
:0C12EF009AE2759B1ED299C2ACFEFF2251
:100FB100E4F51CAB07AA06A905A804FF7EA07D8C59
:100FC100FC120BF9EFD39402500575C3708045EF05
:100FD100D39404500575C371803AEFD3940850053A
:100FE10075C372802FEFD39410500575C37380249D
:100FF100EFD39420500575C3F08019EFD39440507E
:101001000575C3F1800EEFD39480500575C3F2804E
:0610110003751C04AF1C76
:0110170022B6
:0811F7007B007A00794C7FFFB8
:1011FF00E4FE8FC5AFC40EEF54F064F06003EE70E1
:10120F00F3EE600BE5C5120B89EF5470FE80027E82
:03121F0001AF0616
:0112220022A9
:020E3C008F36EF
:100E3E00E536C39440507BE5364440FCFF7B007A98
:100E4E0000793B1211FFAD07753C18ED70047F0160
:100E5E0080027F00E53CC3941950047E0180027E1F
:100E6E0000EE5F6024AF3AAE39AD38AC37A93CA87E
:100E7E0001120C8BAC077B007A00793B1211FFAD8F
:100E8E000774F8253CF53C80C2E53670047C9580ED
:100E9E000BE536B408047C8780027C01ED700CAF44
:100EAE0004FB7A00793B1211FFAD07ED70067D024F
:060EBE0080027D03AF0578
:010EC400220B
:080F3D008F488B498A4A894B59
:100F4500E4FDFC1211F7AC070DED6008EC7005E54A
:100F55004CF460EFAB49AA4AA94BE54C120B89ED5D
:100F650070047C01803AEC60047C028033E54C64BB
:100F7500016008E54C60047C028025E548D39401B6
:100F8500401E7D01EDC3954850161211F7AB49AAD5
:100F95004AA94B8D82758300E54C120B9B0D80E4AD
:0B0FA500EC7006FB1211F9AC07AF0462
:010FB000221E
:100CED00E4F52DF52CF52B752A40D294F5287B00D3
:100CFD007A0079227FFF1211FF0528E528C3940A97
:100D0D0040ECC294E4F53AF539F538F5377F4012E9
:100D1D000E3CEF700AFB7A0079227F01120F3DEF36
:100D2D007008E522640160027F05D294EF7011C254
:100D3D0094753AAA753901F538F5377F48120E3C8E
:100D4D00EF700AFB7A0079227F05120F3DE522B480
:100D5D0005047F058008E522640160027F06D294B8
:100D6D00EF700FC294F53AF539F538F5377F3A1231
:100D7D000E3CEF700AFB7A0079227F05120F3DE5DC
:100D8D0022B401027F05EF700FC294F53AF539F5E3
:100D9D0038F5377F37120E3CEF7021F5297B007A3D
:100DAD000079227F01120F3D0529EF64016007EFE5
:100DBD006004E52970E7E52970027F01E4F529EF6C
:100DCD007031852D3A852C39852B38852A377F2929
:100DDD00120E3CEF700AFB7A0079227F01120F3D53
:100DED000529E5226007E5296003EF60D5E5297047
:100DFD00027F01D294EF700FC294F53AF539F538B0
:100E0D00F5377F3A120E3CEF700AFB7A0079227F9C
:100E1D0005120F3DD294E52354C0700BE52330E746
:0E0E2D00047F0780027F05EF6002C2A7D29407
:010E3B002294
:0300000002130ADE
:0C130A00787FE4F6D8FD75814C0210C716
:100B5C00BB010CE58229F582E5833AF583E022504E
:100B6C0006E92582F8E622BBFE06E92582F8E22298
:0D0B7C00E58229F582E5833AF583E49322B2
:100B8900BB010689828A83F0225002F722BBFE014B
:020B9900F32245
:100B9B00F8BB010DE58229F582E5833AF583E8F090
:100BAB00225006E92582C8F622BBFE05E92582C83C
:020BBB00F22224
:100BBD0075F008758200EF2FFFEE33FECD33CDCCEF
:100BCD0033CCC58233C5829BED9AEC99E582984072
:100BDD000CF582EE9BFEED9AFDEC99FC0FD5F0D64F
:100BED00E4CEFBE4CDFAE4CCF9A88222B800C1B979
:100BFD000059BA002DEC8BF084CFCECDFCE5F0CBB7
:100C0D00F97818EF2FFFEE33FEED33FDEC33FCEBEF
:100C1D0033FB10D703994004EB99FB0FD8E5E4F9AA
:100C2D00FA227818EF2FFFEE33FEED33FDEC33FC97
:100C3D00C933C910D7059BE99A4007EC9BFCE99A8B
:100C4D00F90FD8E0E4C9FAE4CCFB2275F010EF2FD0
:100C5D00FFEE33FEED33FDCC33CCC833C810D707D0
:100C6D009BEC9AE899400AED9BFDEC9AFCE899F80B
:0E0C7D000FD5F0DAE4CDFBE4CCFAE4C8F9229E
:100C8B00E8600FECC313FCED13FDEE13FEEF13FF47
:030C9B00D8F1226B
:10127500EFB40A07740D121280740A309811A899F8
:10128500B8130CC2983098FDA899C298B811F630D9
:0712950099FDC299F59922B1
:10080000E517240BF8E60517227808300702780B65
:10081000E475F001120CB7020C9E2000EB7F2ED283
:10082000008018EF540F2490D43440D4FF30040BD0
:10083000EF24BFB41A0050032461FFE518600215CD
:1008400018051BE51B7002051A30070D7808E475C2
:10085000F001120CB7EF020B890212757403D20774
:100860008003E4C207F5178B088A09890AE4F518A2
:10087000F51AF51BE51860077F2012083B80F57517
:1008800019FFC201C200C202C203C205C206C208E9
:10089000120809FF700D3007057F0012084CAF1BCE
:1008A000AE1A22B4255FC2D5C204120809FF24D0B3
:1008B000B40A00501A75F00A781830D50508B6FF4A
:1008C0000106C6A426F620D5047002D20380D924DE
:1008D000CFB41A00EF5004C2E5D204020A4CD20190
:1008E00080C6D20080C0D20280BCD2D580BAD205E8
:1008F00080B47F2012083B2002077401B518004025
:10090000F1120800FF12083B020874D208D20680D8
:1009100095120800FB120800FA120800F94A4B7001
:1009200006791D7A0B7BFF20022EE518602A7E00D7
:100930008E82758300120B5C60060EEE651970F0F6
:10094000C2D5EBC0E0EAC0E0E9C0E0EE120A93D005
:10095000E0F9D0E0FAD0E0FB120C9EFF60AAEBC0F9
:10096000E0EAC0E0E9C0E012083BD0E02401F9D0A1
:10097000E03400FAD0E0FBE5190460DCD519D98039
:10098000877BFF7A0A798FD202809C791080027966
:1009900008C206C2088008D2D5790A8004790AC242
:1009A000D5E519047002F519E4FAFDFEFF120800FE
:1009B000FC7B08200113120800FD7B1030000A1296
:1009C0000800FE120800FF7B20EC3382D592D55040
:1009D00013C3E43000069FFFE49EFEE42001039D64
:1009E000FDE49CFCE4CBF8C201EC700CCFCECDCC86
:1009F000E824F8F870F38017C3EF33FFEE33FEED11
:100A000033FDEC33FCEB33FB994002FB0FD8E9EBF1
:100A1000300105F8D0E0C448B201C0E00AEC4D4E08
:100A20004F78207B0070C2EAB5190040BCC0E012CC
:100A30000A95D0F0D0E0200104C4C0E0C4B201C0E7
:100A4000F0120824D0F0D5F0EB020874120CC7099C
:100A50001153098B5808E24C08DE42098F4F099761
:0F0A60004409974908F743099D550981460981C3
:100A6F00450981470B3D5008E62D08EA2E090D2B4D
:100A7F0008EE23090B200B262A08A64800000905BB
:100A8F003F3F3F00790AA2D5200314300509B91062
:100A9F00020404B9080104A2D52006025001042063
:100AAF0002689202B518005034C0E07F203003195D
:100ABF007F30A20272067205500F120AECC202C2F8
:100ACF0006C205C2087F30800F300503E9C0E0126F
:100ADF00083B300503D0E0F9D0E0B518CC3005174E
:100AEF007F30B9100C12083B7F583004077F788095
:100AFF0003B9080312083B3002057F2D02083B7F24
:100B0F00202008F87F2B2006F322920280CF286E38
:100B1F00756C6C2900D2011208003001F8C20178FF
:100B2F001830D50108F60208A62D5043495812086F
:100B3F00002403B405004001E4900B389312082CF5
:0D0B4F00743A12082CD20375180402098BA9
:100C9E00BB010689828A83E0225002E722BBFE0254
:090CAE00E32289828A83E4932287
:100CB700FAE6FB0808E6F925F0F618E6CA3AF6223E
:100CC700D083D082F8E4937012740193700DA3A3BC
:100CD70093F8740193F5828883E4737402936860D0
:060CE700EFA3A3A380DFD0
:00000001FF
